{
  "_format": "hh-sol-artifact-1",
  "contractName": "SmartRent",
  "sourceName": "contracts/SmartRent.sol",
  "abi": [
    {
      "inputs": [],
      "stateMutability": "nonpayable",
      "type": "constructor"
    },
    {
      "inputs": [
        {
          "internalType": "address",
          "name": "owner",
          "type": "address"
        }
      ],
      "name": "OwnableInvalidOwner",
      "type": "error"
    },
    {
      "inputs": [
        {
          "internalType": "address",
          "name": "account",
          "type": "address"
        }
      ],
      "name": "OwnableUnauthorizedAccount",
      "type": "error"
    },
    {
      "anonymous": false,
      "inputs": [
        {
          "indexed": true,
          "internalType": "address",
          "name": "previousOwner",
          "type": "address"
        },
        {
          "indexed": true,
          "internalType": "address",
          "name": "newOwner",
          "type": "address"
        }
      ],
      "name": "OwnershipTransferred",
      "type": "event"
    },
    {
      "anonymous": false,
      "inputs": [
        {
          "indexed": true,
          "internalType": "bytes32",
          "name": "rentalId",
          "type": "bytes32"
        },
        {
          "indexed": true,
          "internalType": "uint256",
          "name": "propertyId",
          "type": "uint256"
        },
        {
          "indexed": true,
          "internalType": "address",
          "name": "tenant",
          "type": "address"
        },
        {
          "indexed": false,
          "internalType": "address",
          "name": "landlord",
          "type": "address"
        },
        {
          "indexed": false,
          "internalType": "string",
          "name": "metadataURI",
          "type": "string"
        }
      ],
      "name": "RentalConfirmed",
      "type": "event"
    },
    {
      "inputs": [
        {
          "internalType": "bytes32",
          "name": "rentalId",
          "type": "bytes32"
        },
        {
          "internalType": "uint256",
          "name": "propertyId",
          "type": "uint256"
        },
        {
          "internalType": "address",
          "name": "tenant",
          "type": "address"
        },
        {
          "internalType": "address",
          "name": "landlord",
          "type": "address"
        },
        {
          "internalType": "string",
          "name": "metadataURI",
          "type": "string"
        }
      ],
      "name": "confirmRental",
      "outputs": [],
      "stateMutability": "nonpayable",
      "type": "function"
    },
    {
      "inputs": [],
      "name": "owner",
      "outputs": [
        {
          "internalType": "address",
          "name": "",
          "type": "address"
        }
      ],
      "stateMutability": "view",
      "type": "function"
    },
    {
      "inputs": [],
      "name": "renounceOwnership",
      "outputs": [],
      "stateMutability": "nonpayable",
      "type": "function"
    },
    {
      "inputs": [
        {
          "internalType": "address",
          "name": "newOwner",
          "type": "address"
        }
      ],
      "name": "transferOwnership",
      "outputs": [],
      "stateMutability": "nonpayable",
      "type": "function"
    }
  ],
  "bytecode": "0x608060405234801561001057600080fd5b5033600073ffffffffffffffffffffffffffffffffffffffff168173ffffffffffffffffffffffffffffffffffffffff16036100845760006040517f1e4fbdf700000000000000000000000000000000000000000000000000000000815260040161007b919061019e565b60405180910390fd5b6100938161009960201b60201c565b506101b9565b60008060009054906101000a900473ffffffffffffffffffffffffffffffffffffffff169050816000806101000a81548173ffffffffffffffffffffffffffffffffffffffff021916908373ffffffffffffffffffffffffffffffffffffffff1602179055508173ffffffffffffffffffffffffffffffffffffffff168173ffffffffffffffffffffffffffffffffffffffff167f8be0079c531659141344cd1fd0a4f28419497f9722a3daafe3b4186f6b6457e060405160405180910390a35050565b600073ffffffffffffffffffffffffffffffffffffffff82169050919050565b60006101888261015d565b9050919050565b6101988161017d565b82525050565b60006020820190506101b3600083018461018f565b92915050565b6108f5806101c86000396000f3fe608060405234801561001057600080fd5b506004361061004c5760003560e01c8063715018a6146100515780638da5cb5b1461005b578063e78eadac14610079578063f2fde38b14610095575b600080fd5b6100596100b1565b005b6100636100c5565b6040516100709190610490565b60405180910390f35b610093600480360381019061008e91906105b2565b6100ee565b005b6100af60048036038101906100aa919061064c565b610276565b005b6100b96102fc565b6100c36000610383565b565b60008060009054906101000a900473ffffffffffffffffffffffffffffffffffffffff16905090565b6100f66102fc565b600073ffffffffffffffffffffffffffffffffffffffff168473ffffffffffffffffffffffffffffffffffffffff1603610165576040517f08c379a000000000000000000000000000000000000000000000000000000000815260040161015c906106fc565b60405180910390fd5b600073ffffffffffffffffffffffffffffffffffffffff168373ffffffffffffffffffffffffffffffffffffffff16036101d4576040517f08c379a00000000000000000000000000000000000000000000000000000000081526004016101cb9061078e565b60405180910390fd5b6000828290501161021a576040517f08c379a000000000000000000000000000000000000000000000000000000000815260040161021190610820565b60405180910390fd5b8373ffffffffffffffffffffffffffffffffffffffff1685877f3c9e1c02ebec089dc5f454ec2e9a8425823bb174ee9ab34692a39b649e82454a8686866040516102669392919061088d565b60405180910390a4505050505050565b61027e6102fc565b600073ffffffffffffffffffffffffffffffffffffffff168173ffffffffffffffffffffffffffffffffffffffff16036102f05760006040517f1e4fbdf70000000000000000000000000000000000000000000000000000000081526004016102e79190610490565b60405180910390fd5b6102f981610383565b50565b610304610447565b73ffffffffffffffffffffffffffffffffffffffff166103226100c5565b73ffffffffffffffffffffffffffffffffffffffff161461038157610345610447565b6040517f118cdaa70000000000000000000000000000000000000000000000000000000081526004016103789190610490565b60405180910390fd5b565b60008060009054906101000a900473ffffffffffffffffffffffffffffffffffffffff169050816000806101000a81548173ffffffffffffffffffffffffffffffffffffffff021916908373ffffffffffffffffffffffffffffffffffffffff1602179055508173ffffffffffffffffffffffffffffffffffffffff168173ffffffffffffffffffffffffffffffffffffffff167f8be0079c531659141344cd1fd0a4f28419497f9722a3daafe3b4186f6b6457e060405160405180910390a35050565b600033905090565b600073ffffffffffffffffffffffffffffffffffffffff82169050919050565b600061047a8261044f565b9050919050565b61048a8161046f565b82525050565b60006020820190506104a56000830184610481565b92915050565b600080fd5b600080fd5b6000819050919050565b6104c8816104b5565b81146104d357600080fd5b50565b6000813590506104e5816104bf565b92915050565b6000819050919050565b6104fe816104eb565b811461050957600080fd5b50565b60008135905061051b816104f5565b92915050565b61052a8161046f565b811461053557600080fd5b50565b60008135905061054781610521565b92915050565b600080fd5b600080fd5b600080fd5b60008083601f8401126105725761057161054d565b5b8235905067ffffffffffffffff81111561058f5761058e610552565b5b6020830191508360018202830111156105ab576105aa610557565b5b9250929050565b60008060008060008060a087890312156105cf576105ce6104ab565b5b60006105dd89828a016104d6565b96505060206105ee89828a0161050c565b95505060406105ff89828a01610538565b945050606061061089828a01610538565b935050608087013567ffffffffffffffff811115610631576106306104b0565b5b61063d89828a0161055c565b92509250509295509295509295565b600060208284031215610662576106616104ab565b5b600061067084828501610538565b91505092915050565b600082825260208201905092915050565b7f536d61727452656e743a2054656e616e7420616464726573732063616e6e6f7460008201527f206265207a65726f000000000000000000000000000000000000000000000000602082015250565b60006106e6602883610679565b91506106f18261068a565b604082019050919050565b60006020820190508181036000830152610715816106d9565b9050919050565b7f536d61727452656e743a204c616e646c6f726420616464726573732063616e6e60008201527f6f74206265207a65726f00000000000000000000000000000000000000000000602082015250565b6000610778602a83610679565b91506107838261071c565b604082019050919050565b600060208201905081810360008301526107a78161076b565b9050919050565b7f536d61727452656e743a204d65746164617461205552492063616e6e6f74206260008201527f6520656d70747900000000000000000000000000000000000000000000000000602082015250565b600061080a602783610679565b9150610815826107ae565b604082019050919050565b60006020820190508181036000830152610839816107fd565b9050919050565b82818337600083830152505050565b6000601f19601f8301169050919050565b600061086c8385610679565b9350610879838584610840565b6108828361084f565b840190509392505050565b60006040820190506108a26000830186610481565b81810360208301526108b5818486610860565b905094935050505056fea2646970667358221220a883a2d7aa66b610470308f3762460d2379aec63329c54a284db2c8167a1356664736f6c63430008140033",
  "linkReferences": {},
  "deployedLinkReferences": {}
}